:020000040000FA
:100000002025012061A500007D7D050035A50000AB
:1000100035A5000035A5000035A5000035A5000078
:10002000000000000000000000000000619E0000D1
:1000300035A5000000000000059E000035A5000069
:10004000E19E0000E19E0000E19E0000E19E0000B4
:10005000E19E0000E19E0000E19E0000E19E0000A4
:10006000E19E0000E19E0000E19E0000E19E000094
:10007000E19E0000E19E0000E19E0000E19E000084
:10008000E19E0000E19E0000E19E0000E19E000074
:10009000E19E0000E19E0000E19E0000E19E000064
:1000A000E19E0000E19E0000E19E0000E19E000054
:1000B000E19E0000E19E0000E19E0000E19E000044
:1000C000E19E0000E19E0000E19E0000E19E000034
:1000D000E19E0000E19E0000E19E0000E19E000024
:1000E000E19E0000E19E0000E19E0000E19E000014
:1000F000E19E0000E19E0000E19E0000E19E000004
:10010000E19E0000E19E0000E19E0000E19E0000F3
:10011000E19E0000E19E0000E19E0000E19E0000E3
:10012000E19E0000E19E0000E19E0000E19E0000D3
:10013000E19E0000E19E0000E19E0000E19E0000C3
:10014000E19E0000E19E0000E19E0000E19E0000B3
:10015000E19E0000FFFFFFFF81F0004102E000BFD1
:1001600083F0004330B54FEA41044FEA430594EA77
:10017000050F08BF90EA020F1FBF54EA000C55EAB2
:10018000020C7FEA645C7FEA655C00F0E2804FEA83
:100190005454D4EB5555B8BF6D420CDD2C4480EA65
:1001A000020281EA030382EA000083EA010180EA95
:1001B000020281EA0303362D88BF30BD11F0004FE3
:1001C0004FEA01314FF4801C4CEA113102D0404219
:1001D00061EB410113F0004F4FEA03334CEA133354
:1001E00002D0524263EB430394EA050F00F0A7806C
:1001F000A4F10104D5F1200E0DDB02FA0EFC22FA67
:1002000005F2801841F1000103FA0EF2801843FA5A
:1002100005F359410EE0A5F120050EF1200E012A4B
:1002200003FA0EFC28BF4CF0020C43FA05F3C01889
:1002300051EBE37101F0004507D54FF0000EDCF102
:10024000000C7EEB00006EEB0101B1F5801F1BD3AB
:10025000B1F5001F0CD349085FEA30004FEA3C0CAF
:1002600004F101044FEA445212F5800F80F09A80A5
:10027000BCF1004F08BF5FEA500C50F1000041EBA9
:10028000045141EA050130BD5FEA4C0C404141EBAD
:100290000101013C28BFB1F5801FE9D291F0000FA8
:1002A00004BF01460020B1FA81F308BF2033A3F157
:1002B0000B03B3F120020CDA0C3208DD02F1140C4E
:1002C000C2F10C0201FA0CF021FA02F10CE002F189
:1002D0001402D8BFC2F1200C01FA02F120FA0CFC82
:1002E000DCBF41EA0C019040E41AA2BF01EB0451CB
:1002F000294330BD6FEA04041F3C1CDA0C340EDCC9
:1003000004F11404C4F1200220FA04F001FA02F30B
:1003100040EA030021FA04F345EA030130BDC4F1C9
:100320000C04C4F1200220FA02F001FA04F340EABE
:100330000300294630BD21FA04F0294630BD94F06F
:10034000000F83F4801306BF81F480110134013D56
:100350004EE77FEA645C18BF7FEA655C29D094EAC7
:10036000050F08BF90EA020F05D054EA000C04BF45
:100370001946104630BD91EA030F1EBF0021002030
:1003800030BD5FEA545C05D14000494128BF41F0CF
:10039000004130BD14F580043CBF01F5801130BD33
:1003A00001F0004545F0FE4141F470014FF00000BE
:1003B00030BD7FEA645C1ABF194610467FEA655C6F
:1003C0001CBF0B46024650EA013406BF52EA033511
:1003D00091EA030F41F4002130BD00BF90F0000FFF
:1003E00004BF0021704730B54FF4806404F132043B
:1003F0004FF000054FF0000150E700BF90F0000FF4
:1004000004BF0021704730B54FF4806404F132041A
:1004100010F0004548BF40424FF000013EE700BFEA
:1004200042004FEAE2014FEA31014FEA02701FBF7A
:1004300012F07F4393F07F4F81F06051704732F0AC
:100440007F4208BF704793F07F4F04BF41F4002103
:10045000704730B54FF4607401F0004521F0004161
:100460001CE700BF50EA010208BF704730B54FF0EB
:1004700000050AE050EA010208BF704730B511F0EC
:10048000004502D5404261EB41014FF4806404F124
:1004900032045FEA915C3FF4D8AE4FF003025FEAAA
:1004A000DC0C18BF03325FEADC0C18BF033202EB2E
:1004B000DC02C2F1200300FA03FC20FA02F001FA88
:1004C00003FE40EA0E0021FA02F11444BDE600BF2B
:1004D00070B54FF0FF0C4CF4E06C1CEA11541DBFDA
:1004E0001CEA135594EA0C0F95EA0C0F00F0DEF8A5
:1004F0002C4481EA030621EA4C5123EA4C5350EA8A
:10050000013518BF52EA033541F4801143F48013DA
:1005100038D0A0FB02CE4FF00005E1FB02E506F06B
:100520000042E0FB03E54FF00006E1FB03569CF0C0
:10053000000F18BF4EF0010EA4F1FF04B6F5007FC6
:1005400064F5407404D25FEA4E0E6D4146EB060638
:1005500042EAC62141EA55514FEAC52040EA5E50C1
:100560004FEACE2EB4F1FD0C88BFBCF5E06F1ED86B
:10057000BEF1004F08BF5FEA500E50F1000041EBA2
:10058000045170BD06F0004646EA010140EA02004F
:1005900081EA0301B4EB5C04C2BFD4EB0C0541EA71
:1005A000045170BD41F480114FF0000E013C00F386
:1005B000AB8014F1360FDEBF002001F0004170BDAA
:1005C000C4F10004203C35DA0C341BDC04F11404C3
:1005D000C4F1200500FA05F320FA04F001FA05F24F
:1005E00040EA020001F0004221F0004110EBD3701C
:1005F00021FA04F642EB06015EEA430E08BF20EA48
:10060000D37070BDC4F10C04C4F1200500FA04F3EA
:1006100020FA05F001FA04F240EA020001F000417C
:1006200010EBD37041F100015EEA430E08BF20EAEF
:10063000D37070BDC4F1200500FA05F24EEA020E37
:1006400020FA04F301FA05F243EA020321FA04F066
:1006500001F0004121FA04F220EA020000EBD3701D
:100660005EEA430E08BF20EAD37070BD94F0000F1D
:100670000FD101F00046400041EB010111F4801F51
:1006800008BF013CF7D041EA060195F0000F18BF02
:10069000704703F00046520043EB030313F4801F3E
:1006A00008BF013DF7D043EA0603704794EA0C0FF8
:1006B0000CEA135518BF95EA0C0F0CD050EA41060E
:1006C00018BF52EA4306D1D181EA030101F000418B
:1006D0004FF0000070BD50EA410606BF10461946B3
:1006E00052EA430619D094EA0C0F02D150EA0136BF
:1006F00013D195EA0C0F05D152EA03361CBF104600
:1007000019460AD181EA030101F0004141F0FE419E
:1007100041F470014FF0000070BD41F0FE4141F422
:10072000780170BD70B54FF0FF0C4CF4E06C1CEA22
:1007300011541DBF1CEA135594EA0C0F95EA0C0FD7
:1007400000F0A7F8A4EB050481EA030E52EA033592
:100750004FEA013100F088804FEA03334FF08055B3
:1007600045EA131343EA12634FEA022245EA1115E0
:1007700045EA10654FEA00260EF000419D4208BF91
:10078000964244F1FD0404F5407402D25B084FEA3E
:100790003202B61A65EB03055B084FEA32024FF4EA
:1007A00080104FF4002CB6EB020E75EB030E22BF47
:1007B000B61A754640EA0C005B084FEA3202B6EB07
:1007C000020E75EB030E22BFB61A754640EA5C00B6
:1007D0005B084FEA3202B6EB020E75EB030E22BF46
:1007E000B61A754640EA9C005B084FEA3202B6EB47
:1007F000020E75EB030E22BFB61A754640EADC0006
:1008000055EA060E18D04FEA051545EA16754FEA67
:1008100006164FEAC30343EA52734FEAC2025FEA85
:100820001C1CC0D111F4801F0BD141EA00014FF014
:1008300000004FF0004CB6E711F4801F04BF0143E5
:100840000020B4F1FD0C88BFBCF5E06F3FF6AFAE01
:10085000B5EB030C04BFB6EB020C5FEA500C50F191
:10086000000041EB045170BD0EF0004E4EEA113114
:1008700014EB5C04C2BFD4EB0C0541EA045170BD1B
:1008800041F480114FF0000E013C90E645EA060E5F
:100890008DE60CEA135594EA0C0F08BF95EA0C0F8D
:1008A0003FF43BAF94EA0C0F0AD150EA01347FF4D5
:1008B00034AF95EA0C0F7FF425AF104619462CE7AC
:1008C00095EA0C0F06D152EA03353FF4FDAE10460F
:1008D000194622E750EA410618BF52EA43067FF460
:1008E000C5AE50EA41047FF40DAF52EA43057FF4F0
:1008F000EBAE12E74FF0FF3C06E000BF4FF0010CFB
:1009000002E000BF4FF0010C4DF804CD4FEA410C5E
:100910007FEA6C5C4FEA430C18BF7FEA6C5C1BD02B
:1009200001B050EA410C0CBF52EA430C91EA030FAC
:1009300002BF90EA020F0020704710F1000F91EA09
:10094000030F58BF994208BF90422CBFD8176FEAD7
:10095000E37040F0010070474FEA410C7FEA6C5CA5
:1009600002D150EA013C07D14FEA430C7FEA6C5CAC
:10097000D6D152EA033CD3D05DF8040B704700BFD8
:100980008446104662468C461946634600E000BF26
:1009900001B5FFF7B7FF002848BF10F1000F01BDF8
:1009A0004DF808EDFFF7F4FF0CBF012000205DF8C3
:1009B00008FB00BF4DF808EDFFF7EAFF34BF012048
:1009C00000205DF808FB00BF4DF808EDFFF7E0FFE1
:1009D00094BF012000205DF808FB00BF4DF808ED32
:1009E000FFF7CEFF94BF012000205DF808FB00BF99
:1009F0004DF808EDFFF7C4FF34BF012000205DF87B
:100A000008FB00BF4A0011D212F5001211D20DD519
:100A10006FF47873B3EB62520ED44FEAC12343F004
:100A2000004343EA505323FA02F070474FF00000AE
:100A3000704750EA013002D14FF0FF3070474FF05D
:100A4000000070474FEA4102B2F1E04324BFB3F522
:100A5000001CDCF1FE5C0DD901F0004C4FEAC00235
:100A60004CEA5070B2F1004F40EB830008BF20F019
:100A70000100704711F0804F21D113F13872BCBFD3
:100A800001F00040704741F480114FEA5252C2F128
:100A90001802C2F1200C10FA0CF320FA02F018BF71
:100AA00040F001004FEAC1234FEAD32303FA0CFCC4
:100AB00040EA0C0023FA02F34FEA4303CCE77FEA53
:100AC000625307D150EA01331EBF4FF0FE4040F49D
:100AD0004000704701F0004040F0FE4040F400004C
:100AE000704700BF7BB972B90029BEBF00204FF02C
:100AF000004106E008BF00281CBF6FF000414FF026
:100B0000FF3000F075B8ADF1080C6DE904CE002996
:100B100009DB002B1ADB01F0B4F8DDF804E0DDE9B5
:100B2000022304B07047404261EB4101002B1BDB04
:100B300001F0A7F8DDF804E0DDE9022304B040424B
:100B400061EB4101524263EB43037047524263EB56
:100B5000430301F096F8DDF804E0DDE9022304B078
:100B6000404261EB41017047524263EB430301F0A5
:100B700088F8DDF804E0DDE9022304B0524263EBBB
:100B80004303704753B94AB9002908BF00281CBF66
:100B90004FF0FF314FF0FF3000F02AB8ADF1080CF4
:100BA0006DE904CE01F06DF8DDF804E0DDE9022323
:100BB00004B07047D0B500220B4B06460F46FFF736
:100BC00087FCFFF71FFF0446FFF708FC0022074BD6
:100BD000FFF77EFC02460B4630463946FFF7C0FA67
:100BE000FFF710FF2146D0BD0000F03D0000F041AE
:100BF000704700BF844641EA000313F0030349D164
:100C0000403A23D30B6803604B6843608B68836072
:100C1000CB68C3600B6903614B6943618B69836176
:100C2000CB69C3610B6A03624B6A43628B6A83625E
:100C3000CB6AC3620B6B03634B6B43638B6B836346
:100C4000CB6BC36340304031403ADBD230320BD300
:100C50000B6803604B6843608B688360CB68C3603C
:100C600010301031103AF3D20C3205D351F8043B56
:100C700040F8043B043AF9D2043208D0D2071CBF32
:100C800011F8013B00F8013B01D30B88038060465B
:100C9000704700BF082A13D38B07B1D010F00303AD
:100CA000AED0C3F10403D21ADB071CBF11F8013B1D
:100CB00000F8013BA4D331F8023B20F8023B9FE748
:100CC000043AD9D3013A11F8013B00F8013BF9D2BB
:100CD0000B7803704B7843708B7883706046704755
:100CE00080EA010C1CF0030F37D110F0030C20F048
:100CF000030021F0030150F8042B08BF51F8043B16
:100D00000ED08CF0030C6FF07F434FEACC0C23FA2B
:100D10000CFC51F8043B42EA0C0243EA0C0300BF0E
:100D2000A2F1013C9A4201BF2CEA020C1CF0803F68
:100D300050F8042B51F8043BF2D04FEA02604FEA1E
:100D40001222012828BFB0EB036F08BF1B0AF4D0A2
:100D500003F0FF03000EC01A704710F0030F0AD013
:100D600010F8012B11F8013B012A28BF9A42F4D058
:100D7000A2EB030070474DF8045D50F8042B01F01E
:100D8000030521F0030151F8043B022D26D04DD874
:100D900022F07F45B5EB132FA2F1013C2CEA020CA7
:100DA0000DD11CF0803C08BF51F8043B0AD185EA04
:100DB0000205B5EB036F0CD150F8042BE8E74FEABE
:100DC00013235BE03CF07F4C54D10B784FEA126563
:100DD00054E04FEA126503F0FF034FE04FEA02458B
:100DE000A2F1013C4FEA15452CEA020CB5EB134F7A
:100DF00018D11CF0803C08BF51F8043B07D185EAAC
:100E00000205B5EB034F09D150F8042BE6E75FEA82
:100E10000C4C2FD10B884FEA12452FE04FEA0343C9
:100E20004FEA12454FEA134328E000BF02F0FF05E6
:100E3000B5EB136FA2F1013C2CEA020C0DD11CF0B2
:100E4000803C08BF51F8043B0AD185EA0205B5EBA6
:100E5000032F0AD150F8042BE8E74FEA13630DE0A3
:100E600012F0FF0F06D051F8043B4FEA122523F091
:100E70007F4303E04FF0000020BC704705F0FF0205
:100E800003F0FF00012828BF904204BF2D0A1B0A6F
:100E9000F4D0A2EB000020BC704700BF4FEA410C29
:100EA0007FEA6C5C02D150EA013C0AD14FEA430C64
:100EB0007FEA6C5C02D152EA033C02D14FF00000A1
:100EC00070474FF0010070474FEA410212F50012DF
:100ED00015D211D56FF47873B3EB625212D94FEA81
:100EE000C12343F0004343EA505311F0004F23FA6B
:100EF00002F018BF404270474FF00000704750EAC0
:100F0000013005D111F0004008BF6FF0004070477C
:100F10004FF00000704700BF2DE9F14F03F11C04B2
:100F200002EB840C4FEA930B8A68CB680868496827
:100F300000F046F93CE9F0006040694072407B40B7
:100F40000BF1060E4EE083EA134480EA134582EA71
:100F5000134746BA96EA3444604000F00F1684EA1C
:100F6000063420F00F1684EA161054BA94EA0106EB
:100F7000724002F00F1486EA043622F00F1486EA5B
:100F800014124CBA6540694001F00F1485EA04352B
:100F900021F00F1485EA14115CBA67407B4003F01E
:100FA0000F1487EA043723F00F1487EA141344BAA6
:100FB00044404DBA4D4056BA56405FBA5F4087EA4A
:100FC000174886EA174B84EA17464FEA38488BEAF7
:100FD0001B4485EA1B4788EA1B4580EA3440694088
:100FE00072407B4000F0703400F0803500F00F302C
:100FF00040EA440040EAD50080EA900404F033243B
:1010000080EA8400604001F0703401F0803501F026
:101010000F3141EA440141EAD50181EA910404F02B
:10102000332481EA8401614002F0703402F080359B
:1010300002F00F3242EA440242EAD50282EA920406
:1010400004F0332482EA8402624003F0703403F037
:10105000803503F00F3343EA440343EAD50383EAC0
:10106000930404F0332483EA84036340C943DB43DD
:1010700081EA000483EA044686EA020183EA014326
:1010800082EA334583EA14435C4084EA00077FEA3E
:10109000040A8AEA024A8AEA010B87EA11488AEAC4
:1010A000374A80EA060181EA1A418AEA030A04EA19
:1010B0000A00454088EA040707EA0B0041408AEA33
:1010C0000B0608EA060084EA34428AEA3A4602EA53
:1010D000060358404540414087EA37438BEA3B408E
:1010E00003EA000985EA090582EA0309464006EA9F
:1010F0000906714085EA010005EA3546464006EAE0
:10110000314181EA304181EA364606EA304686EAD4
:10111000354634400F4086EA010508EA050886EAAC
:101120003640024088EA020881EA314213405C40BE
:1011300080EA020309EA030987EA0907674088EAA7
:10114000040806EA0A0601EA0B018AEA0B042540B4
:101150008AEA3A44204045408BEA3B4B02EA0B02C4
:10116000564084EA0B04234059406E40694087EAA8
:10117000364080EA384080EA060380EA104481EA7B
:10118000134585EA344585EA17427D4082EA3541B8
:1011900080EA05403CE9F0006040694072407B40D5
:1011A000BEF1010E3FF6CFAE20BC00F05FF8286024
:1011B0006960AA60EB60BDE8F08F00BF00F000BA84
:1011C00080EA101404F0F01480EA0410604081EA10
:1011D000111404F0F01481EA0411614082EA12143F
:1011E00004F0F01482EA0412624083EA131404F05B
:1011F000F01483EA0413634080EA102404F47F446B
:1012000080EA0420604081EA112404F47F4481EAEA
:101210000421614082EA122404F47F4482EA042219
:10122000624083EA132404F47F4483EA0423634086
:1012300081EA500404F0553480EA4400614083EAB6
:10124000520404F0553482EA4402634082EA900476
:1012500004F0333480EA8400624083EA910404F0AD
:10126000333481EA84016340704700BF82EA90040E
:1012700004F0333480EA8400624083EA910404F08D
:10128000333481EA8401634081EA500404F0553428
:1012900080EA4400614083EA520404F0553482EA53
:1012A0004402634080EA102404F47F4480EA04206E
:1012B000604081EA112404F47F4481EA0421614002
:1012C00082EA122404F47F4482EA0422624083EA20
:1012D000132404F47F4483EA0423634080EA101457
:1012E00004F0F01480EA0410604081EA111404F064
:1012F000F01481EA0411614082EA121404F0F0143F
:1013000082EA0412624083EA131404F0F01483EAC0
:1013100004136340704700BF2DE9F14F94464FEA34
:10132000930B8A68CB6808684968FFF749FF0BF19F
:10133000060E33E083EA134480EA134582EA13473A
:1013400046BA96EA3444604000F00F1684EA063448
:1013500020F00F1684EA161054BA94EA010672407F
:1013600002F00F1486EA043622F00F1486EA1412F3
:101370004CBA6540694001F00F1485EA043521F04C
:101380000F1485EA14115CBA67407B4003F00F1418
:1013900087EA043723F00F1487EA1413BCE8F0003F
:1013A0006040694072407B4000F0E03400F010354E
:1013B00000F00F3040EA540040EAC50080EA900493
:1013C00004F0332480EA8400604001F0E03401F04E
:1013D000103501F00F3141EA540141EAC50181EABB
:1013E000910404F0332481EA8401614002F0E03486
:1013F00002F0103502F00F3242EA540242EAC5020E
:1014000082EA920404F0332482EA8402624003F008
:10141000E03403F0103503F00F3343EA540343EA9A
:10142000C50383EA930404F0332483EA840363400E
:1014300081EA324787EA134581EA354690EA060495
:1014400084EA034B82EA1B4280EA044484EA0544AE
:1014500083EA144A85EA14448BEA044B84EA37444D
:1014600081EA0B4181EA164104EA0A00454082EA1A
:1014700004082BEA080041408AEA0B0602EA06004B
:1014800084EA34438AEA3A4603EA0607784045404C
:10149000414088EA38478BEA3B4007EA000985EA81
:1014A000090583EA0709464006EA0906714085EA0C
:1014B000010005EA3546464006EA314181EA3041FD
:1014C00081EA364606EA304686EA3546344008EA7E
:1014D000010886EA01052A4086EA364003405A4060
:1014E00081EA31431F407C4080EA030709EA07098B
:1014F00088EA0908544088EA020806EA0A0601EA6E
:101500000B018AEA0B0215408AEA3A421040454034
:101510008BEA3B4003405E404240174079404D40DB
:101520004E40E443F64386EA18435D4085EA0540B1
:1015300083EA134386EA034183EA384284EA11438B
:1015400083EA04435FEA3343BEF1010E3FF6F2AE95
:101550001ED4BCE8F0006040694072407B4020BC73
:10156000FFF784FE28606960AA60EB60BDE8F08F39
:101570002DE9E0414FF2F00280EA1031114080EA9B
:101580000130484041088208C3084FF0000E4FE781
:1015900000F0113001F0113102F0113203F011337B
:1015A00040EA410040EA820040EAC3004FF2F00204
:1015B00080EA1031114080EA01304840BDE8E08106
:1015C0002DE9F04F02F11C050646074600EB8508A1
:1015D00051F8040B043A46F8040BF9D14FF0010C12
:1015E000FFF7C6FF5FEA302080EA0C001ECF4140C3
:1015F0004A4053405C401EC62000464517D04FEA83
:101600004C0C1CF4807F18BFACF1E50C2C2DE7D0FE
:101610003C2D06D1FFF7ACFF06CF41404A4006C63D
:10162000100006CF41404A4006C61000D8E736E910
:101630000F00FFF7C5FD043D86E80F00F7D1BDE8B8
:10164000F08F00BF2DE9F04FB0E8FE0783B02DE921
:10165000010790E8005F4FF00A0006900198DB193F
:101660009CEA030C18EB3C4897EA080713EB375346
:1016700093EA3C4C18EB3C6898EA375724189EEAEA
:10168000040E19EB3E4990EA090014EB305494EA39
:101690003E4E19EB3E6999EA3050CDE90489DDE907
:1016A000028949199AEA010A18EB3A4895EA0805AD
:1016B00011EB355191EA3A4A18EB3A6898EA3555F8
:1016C00092199BEA020B19EB3B4996EA090612EBC9
:1016D000365292EA3B4B19EB3B6999EA365613EBCB
:1016E000706393EA3B6B18EB3B4898EA706013EB2E
:1016F000305393EA3B4B5FEA3B6B18EB0B0898EADD
:1017000030505FEA706014EB756494EA3C6C19EB3E
:101710003C4999EA756514EB355494EA3C4C5FEA10
:101720003C6C19EB0C0999EA35555FEA7565CDE912
:101730000289DDE9048911EB766191EA3E6E18EBCE
:101740003E4898EA766611EB365191EA3E4E5FEAE2
:101750003E6E18EB0E0898EA36565FEA766612EB94
:10176000776292EA3A6A19EB3A4999EA776712EB9B
:10177000375292EA3A4A5FEA3A6A19EB0A0999EA59
:1017800037575FEA77670190069801387FF465AFB5
:1017900001BC80E8005FBDE8000700E9FE0703B078
:1017A000BDE8F08F30B44FF0000310F8014B11F892
:1017B000015B013A84EA050443EA0403F5D1A3F18D
:1017C00001034FEAD37030BC704700BF4FF00003F5
:1017D00010F8012B013943EA0203F9D1A3F1010307
:1017E0004FEAD370704700BF30B411F8014B12F8C4
:1017F000015B6C4000F8014B013BF6D130BC7047F7
:101800002DE9F14FF8C892E8005E19EB03095AEB95
:10181000040A5BEB050B5CEB060C4EEB070E91E844
:10182000E001A9FB0502AAFB0543E9FB6624EAFBEC
:101830006634A9FB0765E9FB6845B1E80003EBFBEB
:101840006836ECFB6846EEFB6856ABFB0987ECFBA1
:101850006957EEFB696791E80202EAFB6148EBFB1E
:101860006158ECFB6168EEFB61784FF00001EAFB28
:101870000951EBFB6961ECFB6971EEFB69814FF487
:10188000A03C4FEA154949EA06495FF0000AE9FB26
:101890000C0A4FEA164646EA0746E6FB6C2A4FEA70
:1018A000174747EA0847E7FB6C3A4FEA184848EA07
:1018B0000148E8FB6C4AADB25544AF0805F003059A
:1018C00007EB8707C01952F1000153F1000254F1F0
:1018D000000345F1000420BC1FC5BDE8F08F00BF28
:1018E00030B490E83C10511D53F1000154F1000157
:1018F00055F100014CF100014FEA9101494201F01C
:101900000501521853F1000354F1000455F100058C
:101910004CF1000C0CF0030C80E83C1030BC70471C
:101920002DE9F04F90E8F00F00F140004FF0040E69
:1019300059E0F0B4826BC36B0468052524268759EF
:101940003C444FEA724787EAF24787EA92273C44D1
:1019500042684FEAF21787EAB24787EAD2073C4467
:1019600040F8044B032D08BF6FF01B0687593A441B
:101970004FEA734787EAF34787EA93273A44436875
:101980004FEAF31787EAB34787EAD3073A4440F8A8
:10199000042B87593B444FEA744787EAF44787EAA8
:1019A00094273B4444684FEAF41787EAB44787EA30
:1019B000D4073B4440F8043B013DC0D1A0F13C00BA
:1019C000076A3C444FEA724787EAF24787EA922760
:1019D0003C4402684FEAF21787EAB24787EAD20727
:1019E0003C44C463F0BC4FF0020288EA781C8CEAE5
:1019F000F84C0BEBBC1C8AEA090303EA080383EAF0
:101A00000A039C4450F8043B9C4451F8043B9C441A
:101A1000674444EA050B0BEA060B04EA05034BEAAC
:101A2000030BE34484EAF42383EA34530BEBB30B54
:101A300087EA771C8CEAF74C0AEBBC1C89EA08039E
:101A400003EA070383EA09039C4450F8043B9C44DF
:101A500051F8043B9C4466444BEA040A0AEA050A2E
:101A60000BEA04034AEA030AE2448BEAFB2383EA13
:101A70003B530AEBB30A86EA761C8CEAF64C09EB78
:101A8000BC1C88EA070303EA060383EA08039C44B4
:101A900050F8043B9C4451F8043B9C4465444AEA9A
:101AA0000B0909EA04090AEA0B0349EA0309E144BC
:101AB0008AEAFA2383EA3A5309EBB30985EA751CEB
:101AC0008CEAF54C08EBBC1C87EA060303EA050325
:101AD00083EA07039C4450F8043B9C4451F8043BC0
:101AE0009C44644449EA0A0808EA0B0809EA0A0324
:101AF00048EA0308E04489EAF92383EA395308EB0A
:101B0000B30884EA741C8CEAF44C07EBBC1C86EA2C
:101B1000050303EA040383EA06039C4450F8043BEC
:101B20009C4451F8043B9C44E34448EA090707EA13
:101B30000A0708EA090347EA0307674488EAF82323
:101B400083EA385307EBB3078BEA7B1C8CEAFB4C28
:101B500006EBBC1C85EA040303EA0B0383EA0503D6
:101B60009C4450F8043B9C4451F8043B9C44E244A0
:101B700047EA080606EA090607EA080346EA0306F2
:101B8000664487EAF72383EA375306EBB3068AEA0B
:101B90007A1C8CEAFA4C05EBBC1C84EA0B0303EAC2
:101BA0000A0383EA04039C4450F8043B9C4451F824
:101BB000043B9C44E14446EA070505EA080506EAB9
:101BC000070345EA0305654486EAF62383EA3653AC
:101BD00005EBB30589EA791C8CEAF94C04EBBC1CD3
:101BE0008BEA0A0303EA090383EA0B039C4450F8D7
:101BF000043B9C4451F8043B9C44E04445EA060401
:101C000004EA070405EA060344EA0304644485EA97
:101C1000F52383EA355304EBB304013A7FF4E5AED0
:101C2000A0F14000BEF1010E7FF483AEA0F1400CA4
:101C30009CE80F00001949199219DB19ACE80F0054
:101C40009CE80F004044494452445B44ACE80F0018
:101C5000BDE8F08F38B50022002304460D46FEF79C
:101C6000A9FE28B920462946BDE83840FEF7A2BFA4
:101C7000204605F10041FEF79DFF404261EB410126
:101C800038BD2DE9F04786468C460846089E154625
:101C900074461946002B40F0C1808542B2FA82F2A8
:101CA00045D94AB1C2F1200300FA02FC95409440A4
:101CB0002EFA03F343EA0C0C4FEA154EA8B2230C9C
:101CC000BCFBFEF80EFB18CC08FB00F943EA0C4302
:101CD000994528D9EB1808F1FF3704D2994502D964
:101CE000A8F102072B44A3EB0903A4B2B3FBFEFC4B
:101CF0000EFB1C330CFB00F044EA0344A04214D951
:101D00002C190CF1FF3304D2A04202D9ACF102032A
:101D10002C44241A43EA07401EB1D4400023346007
:101D20007360BDE8F0874746DDE76346F1E792BBA5
:101D3000431B01214FEA154EAFB2200CB3FBFEFC52
:101D40000EFB1C330CFB07F840EA0343984561D9AE
:101D5000EB180CF1FF3004D2984502D9ACF1020027
:101D60002B44A3EB0803A4B2B3FBFEFC0EFB1C3315
:101D70000CFB07F744EA0344A7424DD92C190CF198
:101D8000FF3304D2A74202D9ACF102032C44E41B76
:101D900043EA0040C0E7C2F120039540944020FA96
:101DA00003F12EFA03F34FEA154E9040AFB203430E
:101DB000B1FBFEFC0EFB1C10190C0CFB07F841EAF2
:101DC0000041884522D969180CF1FF3004D28845BA
:101DD00002D9ACF102002944A1EB08019BB2B1FB8E
:101DE000FEFC0EFB1C110CFB07F743EA01439F426C
:101DF0000ED9EB180CF1FF3104D29F4202D9ACF19D
:101E000002012B44DB1B41EA004193E76046E3E714
:101E10006146F7E76046A4E76346B8E7834206D920
:101E200016B9002108467CE7C6E900E0F9E7B3FAF5
:101E300083F78FB9834201D3724508D8BEEB020401
:101E400060EB030301209C461EB9002169E7384678
:101E5000FAE7C6E9004CF8E7C7F1200CBB400EFAE0
:101E600007F522FA0CF42EFA0CF1BA401C4320FAC2
:101E70000CF3B8404FEA144901431FFA84FEB3FB48
:101E8000F9F809FB18300B0C08FB0EFA43EA004383
:101E90009A4540D9E31808F1FF3004D29A4502D997
:101EA000A8F102002344A3EB0A0389B2B3FBF9F8BB
:101EB00009FB183308FB0EFE41EA03418E452CD97D
:101EC000611808F1FF3304D28E4502D9A8F102034C
:101ED000214443EA0040A1EB0E01A0FB02984145DA
:101EE000CE46434602D306D14D4504D20138B9EB64
:101EF000020E68EB0403002EA7D0B5EB0E0261EBD7
:101F0000030101FA0CFC22FA07F3F9404CEA03033F
:101F1000C6E9003199E74046C5E74346D9E70000E6
:101F2000F0B589B0674D00AFD5F86431996811F00C
:101F300001011AD140F603403A1D09F003FE0446A0
:101F4000002840F0BB807868C3681B785BB905F156
:101F5000D403D3E8AF2F02F00902D3E8EF1FC3E8A0
:101F6000E42F002CF9D110F0A3FE002141F2030070
:101F70003A1D09F0E7FD0446002840F09F807B6889
:101F8000514EDA68D2F80100D2F8051003C618469F
:101F900010F08EFE214641F201003A1D09F0D2FDFB
:101FA0000446002840F08A807868C3685A7885F82B
:101FB00070205A88A5F872201A7985F87120B3F834
:101FC0000720A5F87420B3F80530A5F8763010F096
:101FD0006FFE214641F202003A1D09F0B3FD0446AE
:101FE00000286BD1D7F804C0DCF80C20531C413218
:101FF000344618685968083303C493422646F7D11B
:10200000604610F055FE0BF0A1FC0446002855D1A7
:1020100095F88A3099061CD42C4B4FF48451FB61FF
:1020200002232B48BB6107F1180255F0FCFF95F81D
:102030007C305A0650D4274B4FF48251FB61022367
:102040002348BB6107F1180255F0EDFF6FF0120451
:1020500034E0072140F6334009F03AFD06460028F7
:1020600000F0478107210C3058F081F86FF06803C9
:1020700003700623C0F80240847144700471224644
:10208000C370314640F6334009F05CFD0446A8B900
:10209000012140F6314009F01BFD0646002800F002
:1020A000288101210C3058F071F82246314640F663
:1020B000314009F047FD04460028B8D020462437B7
:1020C000BD46F0BD0000002078000020084908004F
:1020D0008401070036490800002142F2030007F19D
:1020E000080209F02FFD04460028E7D1BB68AC4E7A
:1020F000DA68D2F80100D2F8051003C6184610F0CD
:10210000D7FD214642F2020007F1080209F01AFD4C
:1021100004460028D2D1BC68E368B3F8012091B22C
:1021200049B1D97839B1A5F80421DA78114606F118
:10213000280069F028FF204610F0BAFD95F87C6071
:1021400016F0200618D1022140F66D4009F0C0FCBF
:102150000446002800F0CD8002210C3058F007F82A
:102160000123214603704670324640F66D4009F067
:10217000E9FC04460028A1D195F89C301B0713D533
:10218000002142F21C0007F1080209F0DBFC0446C2
:10219000002893D1B868C368D3F80120D3F805307C
:1021A000C5E9382310F084FD95F8D8309E0622D575
:1021B000391DB81C09F048FD044600287FF47EAFA5
:1021C000042142F2240009F083FC0646002800F0B6
:1021D000908004210C3057F0CAFF7B882246038090
:1021E000BB883146438042F2240009F0ABFC044630
:1021F00000287FF463AF95F8D8305C0611D5002134
:1022000042F22A0007F1080209F09CFC044600286B
:102210007FF454AFB868C3685B7885F8203110F05C
:1022200047FD082142F2010009F052FC0446002853
:102230005FD008210C3057F09AFF95F8D81040F283
:10224000022311F0400F08BF0323024688074CBF4A
:1022500043F02C0043F00C008B0695F8D93048BFB2
:1022600040F0400013F0090F95F8A23018BF40F479
:10227000006003F00603CE0748BF40F01000062BB5
:1022800008BF40F4C070002155F0D8FE214600225E
:1022900042F2010009F056FC044600287FF40EAF1C
:1022A00095F87C30B5F80411980625D4D1B941F2DF
:1022B000050007F1080209F045FC044600287FF4F8
:1022C000FDAEB5F80431BC684BB9E368B3F8012042
:1022D000A5F804219A883348114669F054FE204637
:1022E00010F0E6FC082140F6014009F0F1FB04463D
:1022F00090B96FF06804E1E60029F3D12A4B4FF45E
:102300008251FB6102232948BB6107F1180255F095
:102310008AFE6FF00404D1E608210C3057F027FF45
:1023200095F8D8300246D9072FD44FF000512048F5
:1023300055F084FE2146002240F6014009F002FCDF
:10234000044600287FF4BAAE01463A1D4FF601401C
:1023500009F0F8FB80B3174BFB6102234FF4845163
:102360001248BB6107F1180255F05DFE0AF034FF18
:10237000044600287FF4A2AE0CF088FB0446002837
:102380007FF49CAE0AF0FEF998E603A1D1E90001C2
:10239000CEE700BFAFF300809088000200800020ED
:1023A000D8000020080100205A49080084010700D5
:1023B000108800027D4908007B686D46DC688AB0A1
:1023C000B4F80130032B96BF424A434952F8231018
:1023D0006A46D3614FF4007340481384404BC2E90E
:1023E000050142F8103F4FF413513E4855F01BFED3
:1023F000B4F80120AD46022AB4F8033048D1032BCB
:1024000046D8394A52F823106D468AB06A46D361DD
:102410004FF4007335481384314BC2E9050142F88B
:10242000103F4FF413512F4855F0FDFDAD46637931
:10243000A679032B98BF2E4AB4F80750D4F80900A8
:102440006C468CB094BF52F8231023496A46C2E907
:1024500007364FF40073DFF89CC09385264BC2E922
:1024600005C1C2E909504FF4735142F8103F1D48AD
:1024700055F0D9FDA546786810F01AFC00214FF6FA
:1024800002403A1D09F05EFB044618B11B4B63E79E
:102490001149B9E778681A4DC368B3F80130A5F857
:1024A000C13010F005FC95F8C1305B077FF55EAFD9
:1024B00021464FF603403A1D09F044FB08B1114B89
:1024C0004AE77868C3685B7885F8C03010F0F0FBA5
:1024D0004CE700BFE40D070055430800A149080080
:1024E0000400000184010700D40D0700BA49080068
:1024F000C40D0700D249080007000001FF49080089
:1025000000000020284A08002DE9F04F8846D0F846
:10251000201182460B6B16468FB053B1062218313C
:1025200006F1200042F09AFB18B901200FB0BDE877
:10253000F08F504604A9D8F86050D8F88040D6F8FB
:1025400080705FF057FD002852D1DDF820B0BBF15C
:10255000000F04D1DDF81CB0BBF1000F27D042F210
:102560000F71099B049A8B420AD16FF47A63D318D6
:1025700040F2657293428CBF6FF058036FF05B03BB
:102580004046ABEB03095DF098FDD8F88C2003467C
:1025900008F194010AB9D8F89020D8F850005D46A7
:1025A000CDE90090504627F0EFFBCB46044604F5FA
:1025B0009C530833BB42B8D3336DB3F57A6F1ADD41
:1025C000D8F85030B3F57A6FACBF4FF0000A4FF037
:1025D000010A002D12DB07F59C5308339C4200F2E0
:1025E000CB80BBF1190F00F3C7804FF0020B3AE02C
:1025F0004FF0000BDBE74FF0000AEAE7336E03EB26
:102600004A03AB4215DA3846FDF7E8FE804620461D
:102610008946FDF7E3FE4FF033325B4BFDF758FF81
:1026200002460B4640464946FEF7C4F9002840F0F2
:10263000A38007F59C530833A342C0F09D80BBF1F3
:10264000190F00F3998015F1550F31DB15F1500F7B
:10265000CBDB15F14B0F2EDB15F1460FB4BF4FF05E
:10266000040B4FF0050B2046FDF7B8FE80463846B8
:102670008946FDF7B3FE02460B46CDE90223002250
:10268000424BFDF725FF02460B4640464946FEF702
:10269000AFF998B10BF10A0BBAF1000F01D0ABF111
:1026A000020B306E401B5845B4BF002001203DE7AF
:1026B0004FF0010BD7E74FF0030BD4E74FF0333265
:1026C000DDE90201304BFDF703FF02460B464046B1
:1026D0004946FEF78DF910B10BF1050BDCE728A395
:1026E000D3E90023DDE90201FDF7F2FE02460B46C5
:1026F00040464946FEF77CF910B10BF1020BCBE7DF
:10270000BC4202D90BF1010BC6E700221F4B404629
:102710004946FDF7DDFE02460B46DDE90201FEF704
:1027200067F910B1ABF10A0BB6E74FF03332164B35
:1027300040464946FDF7CCFE02460B46DDE9020164
:10274000FEF756F910B1ABF1050BA5E70CA3D3E9E1
:10275000002340464946FDF7BBFE02460B46DDE935
:102760000201FEF745F910B1ABF1020B94E7BC4250
:1027700038BF0BF1FF3B8FE70020D7E6AFF30080B7
:102780009A9999999999F13F3333F33F0000F83FB3
:10279000C1F30A5C02460B462DE9F041ACF2FF356D
:1027A0000C460646132D34DC002D20DBDFF8D080EC
:1027B0000F4648FA05F801EA080C5CEA000C2DD037
:1027C0002DA3D3E90023FDF7CDFC00220023FEF763
:1027D0000FF940B1002C03DD4FF480132B411F444F
:1027E00027EA0804002621463046BDE8F08122A3EE
:1027F000D3E90023FDF7B6FC00220023FEF7F8F82A
:102800000028F0D0002C33DB3443EBD000261D4CE5
:10281000E9E7332D06DDB5F5806F26D01046194661
:10282000BDE8F081ACF2134C4FF0FF3727FA0CF7FC
:102830003842F3D010A3D3E90023FDF793FC002224
:102840000023FEF7D5F80028CDD0002C334609DD53
:10285000142D06D0C5F134050122AA4013449E422E
:1028600000D9013423EA0706BDE7FDF77BFCD7E773
:1028700000264FF00044B6E79C7500883CE4377EA4
:10288000FFFF0F000000F03FC1F30A5C02460B4659
:102890002DE9F041ACF2FF350C460646132D32DC33
:1028A000002D20DBDFF8E0800F4648FA05F801EA4A
:1028B000080C5CEA000C2BD031A3D3E90023FDF710
:1028C00051FC00220023FEF793F840B1002C03DAFC
:1028D0004FF480132B411F4427EA080400262146A9
:1028E0003046BDE8F08126A3D3E90023FDF73AFC8A
:1028F00000220023FEF77CF80028F0D0002C27DB14
:1029000000263446EBE7332D06DDB5F5806F1CD08D
:1029100010461946BDE8F081ACF2134C4FF0FF377A
:1029200027FA0CF70742F3D015A3D3E90023FDF7EC
:1029300019FC00220023FEF75BF80028CFD0002C02
:1029400033460CDB23EA0706C9E7FDF70BFCE1E79A
:1029500024F0004426430DD14FF00044BFE7142D6E
:1029600006D0C5F134050122AA401344B342E9D28E
:102970000134E7E70026054CB1E700BFAFF3008064
:102980009C7500883CE4377EFFFF0F000000F0BF1D
:10299000F8B5C1F30A5604460D4617460B462EBB42
:1029A00021F00043034320D02D4B0022FDF790FD82
:1029B0002C4B04460D469F4241DBC1F30A560B46A1
:1029C000363EBA1940F2FE718A4217DC002A30DC2A
:1029D00012F1350F1EDB244E363220461E40234BAB
:1029E00046EA02510022FDF773FDF8BD40F2FF7286
:1029F0009642E6D10246FDF7B5FBF8BD14A3D3E934
:102A00000023ED0F1A481C4665F3DF742146FDF7DD
:102A10005FFDF8BD05F00044164844F0D27141F462
:102A2000B7310DA3D3E9002341F01F01FDF750FD9D
:102A3000F8BD0D4E20461E4046EA0251F8BD06A3E1
:102A4000D3E90023FDF744FDF8BD00BFAFF30080DC
:102A50009C7500883CE4377E59F3F8C21F6EA501CF
:102A600000005043B03CFFFFFFFF0F800000903C90
:102A70009C75008859F3F8C22DE9F04F016C9BB0AA
:102A800016461F46279D0490CDE9026749B1426C66
:102A90000123044693404A608B604AF087F8002384
:102AA0002364B7F10009C0F2B68000232B607E4B8F
:102AB00033EA090300F0BA800022DDE90234184647
:102AC00021460023CDE90801FDF76AFF804668B181
:102AD0000123269A1360289B13B1744B289A136024
:102AE000DFF8CC8140461BB0BDE8F08F18AB0498EE
:102AF000019319AB0093DDE908234AF05DFC83469E
:102B00005FEA195540F0A980DDE91885454405F2D2
:102B10003243202B40F34D82C3F1400309FA03F9FD
:102B200005F2124326FA03F349EA0300FDF756FCC7
:102B3000013D0123A1F1F871109300225D4BFDF7D7
:102B40000FFB53A3D3E90023FDF7C2FC52A3D3E943
:102B50000023FDF707FB06460F462846FDF74EFC0F
:102B60004FA3D3E90023FDF7B3FC02460B463046E2
:102B70003946FDF7F7FA06460F46FEF7A5F900229B
:102B80008246002330463946FDF714FF002840F006
:102B90000382A8EB0508BAF1160F08F1FF3306937C
:102BA00000F2A781444E06EBCA06DDE90801D6E92A
:102BB0000023FDF7FFFE002800F0848000230AF1C7
:102BC000FF3A0F9308F1FF33002BC0F299810023E5
:102BD0000A93BAF1000F7BDA0A9BCDF82CA0A3EB85
:102BE0000A030A93CAF100034FF0000A0E93249BD4
:102BF000092B77D8052B40F3E181043B0027249370
:102C0000249B023B032B00F25986DFE813F05404A7
:102C1000510447042C04012329F000492B60224B66
:102C2000CDF80C9033EA09037FF446AFC9F31309DA
:102C300042F20F73269A59EA060913601DD0289BA9
:102C4000DFF87880002B3FF44DAF08F10303289A9A
:102C5000404613601BB0BDE8F08FDDE90812CDF8E7
:102C60004080A5F2FF35C2F313030846DDF860800B
:102C700043F07F5141F440115FE7289BDFF840802B
:102C8000002B3FF42FAF08F10803E0E7AFF300801B
:102C900061436F63A787D23FB3C8608B288AC63F62
:102CA000FB799F501344D33F0000F07FF5230800C9
:102CB000F42308000000F83F5006070090240800A5
:102CC00084240800B8F1000F40F3B1840F900A90FB
:102CD000069BCDF82CA05344069300230E93249B0F
:102CE000092B87D900230127CDE924334FF0FF3387
:102CF0000C970793049B00215964079B1193049838
:102D000049F02EFF0590002800F0E185079B0E2B6F
:102D10008CBF002707F00107DDE904321A64002F99
:102D200000F01B810B9A002A40F34A81BC4E02F04E
:102D30000F03D4054FEA221806EBC303D3E900675B
:102D400040F17083B74B08F00F080325D3E908233F
:102D5000DDE90801FDF7E6FCCDE91201B8F1000F4D
:102D600012D0DFF8C09218F0010F08D03046394673
:102D70000135D9E90023FDF7ABFB06460F465FEAB4
:102D8000680809F10809EED132463B46DDE9120137
:102D9000FDF7C8FC804689460F9B43B10022A24B39
:102DA00040464946FDF706FE002840F04784284685
:102DB000FDF724FB42464B46FDF78AFB9B4B002266
:102DC000FDF7D0F9079B0646A1F15077002B00F0E4
:102DD000AB80079B0B9C1293059B404612995D1C90
:102DE000CDE914678E4E06EBC10353E90212CDE91B
:102DF00016124946FEF768F800F13007FDF7FEFAB3
:102E000002460B4640464946FFB2FDF7A9F98946FE
:102E10000C998046DDE91623002900F00F8100207F
:102E20008349FDF77FFCDDE91423FDF799F9059E41
:102E300042464B46377006460F46FDF7D9FD00283F
:102E400040F02F850023CDF858A0CDF850B09A4619
:102E5000DDF848B012942BE00AF1010ADA4580F25D
:102E6000BD84304639460022724BFDF731FB00220B
:102E7000704B06460F4640464946FDF729FB8946FA
:102E80008046FEF721F80446FDF7B8FA02460B46E5
:102E9000303440464946FDF763F932463B4605F873
:102EA000014B80468946FDF785FD002840F09C8453
:102EB00042464B4600205C49FDF752F932463B46FC
:102EC000FDF778FD0028C7D0DDF850B02F46129CE2
:102ED000059902E08F4200F05F843A4617F8013D01
:102EE000392BF7D00133DBB23B70DDF8148005924B
:102EF0006BE101230F9308F1FF33002BBFF667AEA0
:102F0000C8F101030A930023069362E62846FDF701
:102F100075FA42464B46FDF7DBFA0022434BFDF7BC
:102F200021F90646A1F15077404649460022424B1E
:102F3000FDF716F932463B4680468946FDF758FDB7
:102F4000002840F0AD8340464946324607F1004331
:102F5000FDF730FD002840F0D5810B9A199B0E2A11
:102F600002DC002B80F2AD810C9A002A00F0B580C3
:102F7000249A012A40F38583079A0E9B551EAB4283
:102F8000C0F2C782002AA3EB050580F25B840A9B8E
:102F9000079AA3EB0208C9E25046FDF72FFA324622
:102FA0003B46FDF7FDFC00287FF4F3AD0AF1FF3A44
:102FB000EFE5C3F1200306FA03F0B7E501271FE6AA
:102FC00000F0A3820B9B164E5D4205F00F0306EB4B
:102FD000C303DDE90801D3E90023FDF779FA2E11D7
:102FE000CDE9120100F052840E4C002302258046E8
:102FF0008946F00709D5404649460135D4E9002302
:10300000FDF766FA3B4680468946761004F10804CF
:10301000EFD1002B7FF4C0AEDDE91289BCE600BF22
:1030200050060700280607000000F03F00001C4083
:103030000000E03F0000244000001440DDE91401DE
:10304000FDF746FA059B1F70129B012BCDE90C0181
:1030500000F00984129F059BCDF840A01F44002278
:10306000AA4B40464946FDF733FA89468046FDF7AC
:103070002BFF8246FDF7C2F902460B460AF1300AE1
:1030800040464946FDF76CF805F801ABAF42804673
:103090008946E4D1DDF840A000229D4BDDE90C011A
:1030A000FDF760F842464B46FDF784FC002840F0EF
:1030B0007B8300209649DDE90C23FDF751F8424659
:1030C0004B46FDF795FC002840F01982199B002B18
:1030D00003DB0B9B0E2B40F3F58000230E9DDDF8E8
:1030E00028801E460C93B8F1000F0DDD06990029CB
:1030F0000B4609DD41450A9AA8BF4346D21AA8EB00
:103100000308CB1A0A9206930E9B53B10C9B13B182
:10311000002D40F01E8259460E9A049849F02EFF69
:1031200083460121049849F049FE0746BAF1000F91
:1031300040F06381249B012B40F37A81012306999F
:103140000B4413F01F0308D0C3F12002042A00F33C
:10315000B5810AD0C3F13C0300E01C230A9A9844CD
:103160001A440A92069A1A4406920A9B002B05DD1D
:1031700059461A46049849F05BFF8346069B002B8C
:1031800005DD39461A46049849F052FF0746249B4C
:10319000022B0F9BD4BF00250125002B40F0BE80E1
:1031A000079B002B24DC1DB3079B002B00F08F81B5
:1031B000259BDDF81480DC433946049849F0F6FC81
:1031C0001EB13146049849F0F1FC5946049849F083
:1031D000EDFC00220599631C0A70269A1360289B57
:1031E000002B3FF47FAC404619601BB0BDE8F08F68
:1031F0000C9B002B00F0AF80B8F1000F00F3C081F2
:10320000BAF1000F40F0D382B146059D079C6B1EBA
:103210001C44029B089403F00103049C0A93394662
:10322000584648F007FF31468246584649F074FF39
:103230004A4639468046204649F08EFFC26801461C
:103240000AF13003002A40F0A281CDE90603584676
:1032500049F062FF06990690204649F0A7FC249B9E
:10326000069A52EA0301079B40F0C2810A9A002A9B
:1032700000F0F282B8F1000FC0F2AD81089AA846C2
:10328000AA4208F8013B00F0D282594600230A22E4
:10329000204649F095FC4E45834631464FF00003E9
:1032A0004FF00A02204600F09D8149F089FC494612
:1032B000064600230A22204649F082FC4546814604
:1032C000ADE7144E0B9B06EBC306D6E90034CDE9FF
:1032D0000234259B002B80F2E881079B002B00F332
:1032E000E481079B73B900220B4BDDE90201FDF776
:1032F000EFF802460B46DDE90801FDF765FB002803
:1033000000F0CE8100273E4652E700BF0000244077
:103310000000E03F500607000000144039465846C0
:1033200049F0FAFE0028BFF63BAF0B9B59460A2234
:103330000498013B0B93002349F042FC0C9B83460D
:10334000002B40F09282119B002B119B079302DC13
:10335000002D7FF429AFDDF814800125079CDDF8EE
:10336000109007E0594600230A22484649F028FCFD
:10337000013583463946584648F05CFEA54200F1C7
:10338000300308F8013BEDDB079A0025002ACCBF8B
:1033900090464FF00108059A90445946012204983E
:1033A000029349F045FE3946834649F0B5FE0028B0
:1033B00040F3E481059A02E0904500F0D48118F8CA
:1033C000013CC24608F1FF38392BF5D001330B9C84
:1033D00088F800303946049849F0E8FB002E00F0E8
:1033E000C8812DB1B54203D02946049849F0DEFBCF
:1033F000DDF81480CDF814A0E3E6014652460498A7
:1034000049F0BCFD249B0746012B40F395804FF00B
:10341000000A3B6907EB8303186949F07BFCC0F1A4
:1034200020038CE6DDE908340225CDE9123495E469
:10343000029B002B7FF482AEDDE90212C2F313037C
:10344000002B7FF47BAEAD4B134033B10A9B0133AD
:103450000A93069B013306930123BAF1000F40F053
:10346000F9819A466AE601230C93259B0B9A134433
:1034700011930133012B1D460793B8BF0125172D6A
:1034800040F31382012204235B001146013203F151
:103490001400A842F8D9049B596430E401230C932A
:1034A000259B002B40F3BE801D4611930793E6E752
:1034B00000230C93D9E700230C93F1E7C3F11C031D
:1034C0000A9A19441A4498440A9206914DE63946DC
:1034D0000522049849F074FB07465846394649F0DE
:1034E0001BFE00287FF764AEDDF81480059B0B9C63
:1034F000013301340593312388F800305CE63A4605
:1035000017F8013D302BFAD0EFE40225DDE90889F8
:1035100042E40E9B0E95EB1A00259A44DDE9063233
:10352000134406930A9B984613440A930121049876
:1035300049F044FC0646D6E5029B002B7FF467AFBA
:10354000DDE90201C1F313030A46002B3FF47BAF10
:103550005DE7049C31462A46204649F00FFD0646A9
:103560005A462046314649F057FC59468346204684
:1035700049F01CFB0E9B5B1B0E933FF4D2ADCAE5DA
:1035800031464246049849F053FD064638E6049811
:10359000069349F00BFBB8F1000F069B08DB029A7B
:1035A000249902F0010248EA010852EA08022ED1E9
:1035B000594601220498029349F03AFD3946834660
:1035C00049F0AAFD0028029B40F36581392B00F0E9
:1035D00031810AF13103AA460B9C35464E460AF862
:1035E000013BF7E649F0ECFA45460646814616E609
:1035F000B8F1000FC0F25E81249948EA01080A99E7
:1036000051EA080800F05681002A7FF737AE392BBF
:1036100000F01081AA46013335460B9C4E460AF84D
:10362000013BD7E6012325930793FFF763BBC8F15E
:10363000010306900F900A93FFF74ABB079B002BEC
:103640003FF464AC119B002B7FF787AC0B9A40468C
:1036500049461293541E2A4B0022FCF739FF80463C
:103660008946681CFCF7CAFE42464B46FCF730FF11
:103670000022244BFCF776FD0646A1F15077FFF7B8
:10368000ABBB109A002A00F08B8003F23343069AFA
:103690000E9D1A4406920A9A90461A440A9245E7E9
:1036A0000027DDF814803E4620E7DDE90889DDE9E2
:1036B000022340464946FDF735F8059FFDF704FC17
:1036C0000546FCF79BFEDDE90223FCF701FF0B46F4
:1036D000024649464046FCF743FD05F1300307F832
:1036E000013B079B012B00F08980CDF818B0012623
:1036F000DDF81C90DDE902AB22E000BF0000F07FA6
:103700000000244000001C4052465B4620462946EB
:10371000FDF708F80136FDF7D7FB8046FCF76EFE93
:1037200052465B46FCF7D4FE0B460246294620462D
:10373000FCF716FD08F13003B14507F8013B5AD0FC
:103740000022704BFCF7C4FE0022002304460D4605
:10375000FDF726F90028D7D0DDF818B0DDF8148081
:103760000B9C059731E50B9C3123059A01341370AE
:1037700030E6DDF81480CDF814A026E503D1029BD5
:10378000DB073FF517AE18F8013CC24608F1FF38D9
:10379000302BF8D00B9C1DE601343123FFF7A4BB7E
:1037A000189BC3F1360372E70599FFF796BB716862
:1037B000049849F0D5F90546002800F08F80336958
:1037C00006F10C010C3002339A00FDF713FA29467A
:1037D0000122049849F02CFC814616E5DDF858A03A
:1037E000DDF850B0FFF7B9BBDDF81480DDF850B05C
:1037F000129C0595E9E4DDF818B0454602460B46F3
:10380000FCF7B0FC80468946DDE90223FDF7F0F8BD
:1038100048B940464946DDE90223FDF7C1F80028D2
:103820009CD0E9079AD50B9C0599FFF756BB354606
:103830004E46B2E5A84639233546059A4E4608F865
:10384000013BBCE5069B134406930A9B9846134430
:103850000A936BE69A46DCE5392BEBD0B8F1000F02
:103860003FF7B7AEB7E62F4616E4314600230A22EB
:10387000049849F0A5F9119B0646002B119B07936C
:103880003FF7BAAC002D7FF48FACB5E4DDE91289C7
:103890000225FFF781BA7FF49EAEDA077FF59BAE73
:1038A00094E6DDF8148005958FE40021049B5964AB
:1038B000FFF725BA002A3FF77BAE8CE6049B002574
:1038C000184629465D6449F04BF9059068B90E4BDE
:1038D00000224FF4D5710D4840F036FE02460A4BE7
:1038E00040F2EA21094840F02FFEDDE90432259537
:1038F0001A644FF0FF33012211930C920793FFF7E4
:103900002CBB00BF0000244094240800A824080019
:103910002DE9F04F1C46794B9FB00E46002583469B
:10392000186807921A95089042F09AF90021024609
:1039300033460020CDE904019846199313F801ABF2
:10394000BAF12D0F5ED801A151F82AF0E33A000038
:10395000053A0000053A0000053A0000053A00006B
:10396000053A0000053A0000053A0000053A00005B
:10397000393900003939000039390000393900007F
:1039800039390000053A0000053A0000053A000008
:10399000053A0000053A0000053A0000053A00002B
:1039A000053A0000053A0000053A0000053A00001B
:1039B000053A0000053A0000053A0000053A00000B
:1039C000053A0000053A0000053A000039390000C8
:1039D000053A0000053A0000053A0000053A0000EB
:1039E000053A0000053A0000053A0000053A0000DB
:1039F000053A0000053A0000B7400000053A000013
:103A0000D140000000230993BAF1300F00F0688222
:103A100000230A93AAF13003092B00F256840027F1
:103A200040463D463C460130082C07EB870104F137
:103A3000010405EB850C199090F800A0CCBF03EBB6
:103A4000410703EB4C05AAF13003092BEBD9089988
:103A5000089242F033F9089A8146002850D1199B08
:103A600001460894981819909B5CA3F13002092A2A
:103A700000F2F082013192461998002A40F0F88451
:103A8000431C19934378F0E74FF0010EB31C1993D0
:103A9000B378A3F1300CBCF1090F00F2F582199A4A
:103AA000302B0B9240F02B83013219921378302B7C
:103AB000FAD0A3F131000B92082840F21E830022B5
:103AC0000C9254BB0A9A0A4340F09882BAF1000F54
:103AD00007D1692B00F0398340F318826E2B00F078
:103AE0001B82079B4FF000084FF0000903B11E60D6
:103AF000404649461FB0BDE8F08F00BF542708007C
:103B00002AF02002002153460894452A89468A4615
:103B100000F0AD820C91002CD4D0089A2846A24621
:103B20001346002A08BF23460893FCF757FC0B46B0
:103B30000246102CCDE904230C9BA8BF4FF0100ABD
:103B4000092CA3EB09030B9317DD544B03EBCA03BA
:103B500053E91223FCF7BCFC024638460F461646D2
:103B6000FCF73CFC02460B4630463946FCF7FAFAB5
:103B70000F2CCDE9040100F3E1810B9B002B00F039
:103B800097820B9B40F3A782162B40F39A84C4F1D3
:103B900025030B9A934280F2DA84A4EB0A061644BA
:103BA00016F00F000AD03D4901EBC001DDE9042306
:103BB000D1E90001FCF78CFCCDE9040136F00F03DC
:103BC0004ED0B3F59A7F00F34684102B4FEA2316AC
:103BD00040F3B285DFF8C8E04FF0000CCDF8289034
:103BE0007746E246F146DDE9042316F0010F104660
:103BF00019464FEA66060AF1010A07D0D7E9002301
:103C0000FCF766FC4FF0010C02460B46012E07F153
:103C10000807EAD1CE46DDF82890BCF1000F01D0AC
:103C2000CDE90423059B0EEBCA0E1E4EA3F154737F
:103C30000593DDE90423DEE90001FCF749FC1A4B9A
:103C40000A460B40B342CDE9040100F2048417494F
:103C50008B4240F2FE844FF0FF33154ACDE9043227
:103C600000230A932346089A41465846009548F097
:103C7000F9FF1590002800F0EE830B9A4FF0000A30
:103C80000C9B002ACDF820A0A9EB0303A8BF0023BA
:103C90000C9322EAE2731493E2E000BF500607009F
:103CA000280607000000A07C0000F07F0000907C48
:103CB000FFFFEF7FD21A1F2AA4EB020400F3C68293
:103CC000012300259340984626443C440A9BA74282
:103CD0001E443B46A8BF2346B342A8BF3346002B31
:103CE00002DDE41AF61AFF1A0C9B002B00F3548233
:103CF000002C00F36A820B9B002B00F39D82002EA8
:103D000000F38E82002F08DD51463A46584649F0AE
:103D10008FF98246002800F08C824A461A9958464C
:103D200049F01AFA0890002800F08382089A0023CC
:103D3000D168D3600D91514649F0EEF90028C0F2E8
:103D4000C584059F00F022845146089849F094FBF1
:103D500000224FF0804304460D46FCF735FE002854
:103D600000F00A820D9B002B40F07C82049B002B0C
:103D700040F06183C7F31303002B40F0E68200227A
:103D8000AB4B20462946FCF715FE002840F0F58392
:103D90002046A84B29460022FCF79AFB03460C4616
:103DA0000E90CDE9123401F100430F93A24EA34BC4
:103DB0003E409E42DDE90E4500F05B820A9B23B344
:103DC000B6F1D46F21D8DDE9127897A3D3E90023A7
:103DD00038464146FCF7F8FDA0B141463846FCF7AD
:103DE00011FE012838BF0120FCF7F8FA0D9BCDE940
:103DF0001201002B40F0378301F100431690179316
:103E0000DDE9164505F1D6639D1BDDE910783846DE
:103E1000414649F051FA02460B4620462946FCF736
:103E200057FB3A464346FCF79DF90C46CDE90401A1
:103E3000814B2340B34203D10A9B002B00F08E82BA
:103E40001A99584648F0B2FE4946584648F0AEFE28
:103E50005146584648F0AAFE0899584648F0A6FE32
:103E6000159C5846616848F07BFE8146002800F0AA
:103E7000E081226904F10C010C3002329200FCF75F
:103E8000B9FE1CAB584601931BAB0093DDE904342B
:103E90001A46CDE91034234649F08EFA1A900028CC
:103EA00000F09C810121584648F088FF8246002896
:103EB00000F0BF811B9B002BC0F2AE810C9A149EB8
:103EC0009F180A9A1C9C9B1A5D4A2344C4F136042D
:103ED000013B9342FFF6EEAE012300259846F3E640
:103EE00098F8013003F0DF03582B00F07582434649
:103EF0000133199393F800A0BAF1300FF8D0984627
:103F0000BAF1000F7AD001230A9383E5492B00F020
:103F10001C814E2B7FF4E5AD4A4919A84AF020FADE
:103F200000283FF4DEAD199B1B78282B00F07E8320
:103F300045484AF021FB8046894663E0A4EB0A0627
:103F40000B9B1E44002E3FF72BAE3FF489AE76420A
:103F500016F00F020AD03D4B03EBC203DDE904016A
:103F6000D3E90023FCF7DEFBCDE9040136113FF471
:103F700077AE1F2E3FDC16F01003354F4FF0000CCC
:103F800018BF6A230A93DDE9042316F0010F1046D7
:103F9000194607D0D7E90023FCF79AFA4FF0010C35
:103FA00002460B46761007F10807EED1BCF1000F70
:103FB00001D0CDE904230A9BA3B1DDE90401C1F3DB
:103FC0000A52C2F16B03002B0ADD1F2B40F3FA8368
:103FD0000020342B049040F321844FF05C73059350
:103FE0006A230A9300220023DDE90401FCF7D8FCD0
:103FF00000283FF437AE2223CBF800304FF0000802
:104000004FF00009079A0AB1199B1360099B002B16
:104010003FF46EAD09F100434046994649461FB052
:10402000BDE8F08FAFF300800000C0FFFFFFDF416D
:104030000000F03F0000E03F0000F07F0000E07F64
:1040400002FCFFFFB0250800D4320800500607002C
:10405000180707004FF0010A23F02002452A7FF4D9
:104060002EAD44EA01030A9A13433FF43AAD199E78
:10407000731C199373782B2B00F023812D2B3FF4A5
:1040800003AD4FF0000E04E5002219960C9218E5DE
:104090001C9A03F2334304921D9A22F4801242EADE
:1040A00003530593210703D5059B43F00043059374
:1040B000DDE90489A6E70023099308F101031993B8
:1040C00098F801A0BAF1000F3FF40BAD98469BE4BD
:1040D00001230993F1E71633FFF630AF0C9BA9EBF0
:1040E0000309B34B03EBC903DDE90401D3E9002362
:1040F000FCF718FB8046894684E7A3F1300C0B9B44
:10410000581C19905B78A3F13002092A00F2D18182
:1041100001300CEB8C0C199003EB4C0C0378ACF1D8
:10412000300CA3F13002092AF2D90B9A801A082820
:1041300040F3BF8144F61F620C92BEF1000F3FF4C2
:10414000C0AC0C9A52420C92BBE49A4919A84AF0AE
:1041500007F900283FF4C5AC199B19A89649013B03
:1041600019934AF0FDF810B9199B013319934FF0D8
:104170000008DFF8489245E7914B20462946002287
:10418000FCF7A6F90D9BCDE91201002B65D101F1D9
:1041900000430E900F9309E651461A46584648F0E0
:1041A000EDFE8246002844D001461A9A584648F04F
:1041B00033FE00283DD00D9058461A9948F0F6FC81
:1041C0000D9B002C1A937FF796AD22461A995846FC
:1041D00048F02EFF1A9000287FF48DAD4F4605461B
:1041E00022234FF00008DFF8D491CBF800302946A5
:1041F000584648F0DBFC3946584648F0D7FC514653
:10420000584648F0D3FC1599584648F0CFFC089919
:10421000584648F0CBFCF5E6149A0C9FD61A50E6A7
:1042200049463246584648F003FF814600287FF44D
:1042300069AD4F461A9DD3E74946149A584648F04F
:104240009DFE814600287FF45AADF2E75D4AD31AFD
:10425000012202FA03F5904636E5DDE91234CDE994
:104260000E34A3E50023584CCDE90E34CDE91234C9
:104270009CE5A7F15473514F0593DDE904452046B1
:10428000294649F019F8DDE90E23FCF721F92B4600
:104290002246FBF767FF4D4B0F409F42CDE90401DB
:1042A00040F2DD8003F15473DDE91001994202D13F
:1042B000B0F1FF3FBDD04FF0FF33454ACDE90432A6
:1042C000BEE54FF0000EFFF7E1BB089940460B92A8
:1042D00041F0F4FC0B9A089048B10022534617466F
:1042E000924615461146914614460892B4E6199B2B
:1042F000981819909B5C302B40F02781024611469C
:10430000013219921378302BF9D0C0F10100014429
:10431000A3F13102082A10D8DDF864800025A3F14A
:10432000300A01F10109012440462F4605EB8505BD
:1043300000210AEB4505FFF7A3BB4FF000094FF042
:10434000010A4C464F464D4686E60023214CCDE9F6
:104350000E3400231C4CCDE9123427E5DDE912565A
:10436000C4F3130728463146FDF774FCFCF782F8C6
:1043700002460B4628463146FBF7F2FE049D0D9E91
:1043800004462E430D46374343D107A3D3E9002308
:10439000FCF710FB00283FF453AD4F461A9DDDE9B2
:1043A000048924E7AFF300809535A094FFFFCF3F49
:1043B00050060700A4250800A82508000000F07F8B
:1043C0000000E03FE2FBFFFF0000F03FFFFF9F7CAB
:1043D000FFFFEF7F0000F0BF099B19A90294584628
:1043E00001931AABB04A00931BAB49F0BDFC10F02F
:1043F000070504463FF402AE062D7BD1079A12B1A1
:1044000008F1010313604FF000084FF00009FFF7B7
:104410006FBBA1A3D3E90023FCF7CCFA0028BCD1E1
:10442000204629469EA3D3E90023FCF7E1FA0028A1
:104430003FF406ADB1E7049B012B86D1002F84D158
:104440004F461A9C222325464FF000084FF00009E2
:10445000CBF80030CBE62223CBF8003087E601F121
:1044600054740594E4E4DDE91234CDE91634C7E46C
:10447000012900F0138204EB010E0EF1FF3CCDF890
:104480002CE003E04FEA4E05A4450BD0082C05EBC9
:10449000850E04F10104F5D907EB8703102CD8BF72
:1044A0005F00F1E7DDF82CE0082C894416DC744647
:1044B0003CE744F61F629445A8BF9446CDF830C04F
:1044C0003BE60B98794901EBC001DDE90423D1E912
:1044D0000001FBF7FDFF8046894693E5BEF1100F12
:1044E00074464FF00001DCBF07EB870702EB47077C
:1044F000FFF7C6BA1A9A3AB135211CA848F0E6FF70
:1045000058461A9948F052FB013D1B9B042D3FF67B
:10451000C9AD01A252F825F09140000041450000CC
:104520003B4500002D450000914000004FF0FF3357
:104530006FF00040CDE90430B4E55D4B0593B1E583
:104540001C9B04931D9B0593ACE50899E0E6C4F120
:104550000F04564D05EBC401DDE90423D1E9000148
:10456000FBF7B6FF0B9B1C1B05EBC405D5E900232D
:10457000FBF7AEFF8046894644E500234D4CCDE96C
:104580000E3400234C4CCDE912340FE43B460D9819
:10459000C4464F46AE464949C3F31302DDE91089CC
:1045A00000285BD08A4200F0FB80B5BB049A1CEA6D
:1045B000020F35D040464946049348F07DFE0A9BE1
:1045C00004460D46002B00F01F81049BC3F30A53E1
:1045D000C3F16B06002E40F36481394C002204EBDA
:1045E0000653FBF775FF02460B4640464946FBF76C
:1045F000B9FD1A9C8046894640464946314B002207
:10460000FBF766FF0B4625468046034389467FF449
:10461000EEAD2223CBF80030E9E51EEA030FC9D145
:104620001A9C0A9B2546002BE6D1E0E519A81CAA96
:10463000254949F0AFFE05287FF47AAC1D9B43F075
:10464000FF4343F4E00305931C9B0493DDE90489D5
:10465000D8E402F154730593FFF702BB002A71D12D
:10466000DDE904452246002C40F0B4800A9A002A75
:1046700040F0F08025F00044240D2405A4F58014BA
:104680001A9D6FEA14536FEA035305934FF0FF33FB
:104690000493DDE90489AAE59535A094FFFFDF3F87
:1046A00035E5AF350000E03FC8250800500607009B
:1046B0000000F07F0000E0BF0000E03FFFFF0F00C0
:1046C0000000F03F00005039B42508000D9B4F4614
:1046D000DDE90401DDE910890343A1D1C1F313032E
:1046E000002B9DD121F00044240D2405B4F1D66F98
:1046F000264695D9089A536913B91369012B8FDDA2
:1047000008990122584648F093FC5146089048F019
:1047100003FD002884DD0A9B002BAFD0A6F5801393
:104720001A9C6FEA13536FEA035305934FF0FF335C
:104730000493DDE904895FE74FF0000ADFF87CE1CC
:10474000FFF770BA002D48D1049A1CEA020F3FF41B
:1047500067AF40464946049348F0AEFD0A9B002BE4
:1047600040D0049BC3F30A53C3F16B06002E40F301
:10477000A280534C002204EB0653FBF7A9FE02462D
:104780000B4640464946FBF7EBFC002200238046DF
:104790008946FCF705F900287FF453AE1A9C2BE7F5
:1047A000DDE904010A9A0446002A40D1024601329A
:1047B0006DD0BEF1000F7FF430AF14EA0C0F3FF460
:1047C0002FAFF7E64FF0FF3202FA03F3049A1A40D4
:1047D000049205E4BEF1000FB7D01EEA030F3FF4C8
:1047E0001FAFB6E702460B4640464946FBF7B8FC0A
:1047F0001A9C00220023804689462546FCF7D0F803
:1048000000283FF4F4AC1DE6404649462B462246BC
:10481000FBF7A8FC1A9D80468946E8E4C2F14B02EA
:104820004FF0FF3393400B400593FFF7D9BB254A68
:104830001A40B2F1D46F21D9611CBAD122498B42FE
:104840003FF4F8AC02F58013059300230493DDE9EF
:104850000489E5E61B4E1E40B6F1D66F3FF65EAF0B
:104860001A9DB6F15C7F2C463FF6C6AE22234FF070
:1048700000084FF00009CBF80030B8E4100D4FF0FD
:10488000FF31C0F16B0081408C4292D1DAE70E4AD1
:1048900093423FF4CFAC01321A40D3E704F1010E4A
:1048A00002E64046494622462B46FBF75BFC1A9C33
:1048B00080468946A0E602460B4662E728060700C6
:1048C0000000F03F0000F07FFFFFEF7F00000000DE
:1048D0002DE9F04F012984468E4687B064D800291F
:1048E00042D033A3D3E9002333A7D7E9006734A527
:1048F000D5E900450FF2D00BDBE900AB34A1D1E9DB
:104900000001CDE9042334A3D3E90023CDE900233A
:1049100033A3D3E90023CDE9022333A3D3E9002352
:104920004FF000084FF00009CCE90A01DDE904016D
:10493000CCE90C01DDE90001CCE90E01DDE9020161
:10494000CCE910010020CCE90089CCE90289CCE94E
:104950000467CCE90645CCE908ABCCE91223CCF8D6
:10496000D0E007B0BDE8F08F21A3D3E9002322A750
:10497000D7E90067CDE9042321A5D5E9004522A3A5
:10498000D3E900230FF2880BDBE900ABCDE900236C
:1049900021A1D1E9000122A3D3E90023CDE902231B
:1049A00021A3D3E90023BBE76FF07400D9E700BF70
:1049B000310BC0FF67263367D89E05C15D9DBBCB19
:1049C00007D57C362A299A6217DD70305A01599131
:1049D00039590EF7D8EC2F1511155868874AB48E3F
:1049E000A78FF9640D2E0CDBA44FFABE1D48B54706
:1049F000D182E6AD7F520E5108C9BCF367E6096A61
:104A00003BA7CA8485AE67BB1F6C3E2B8C68059B99
:104A10002BF894FE72F36E3CF1361D5F3AF54FA50C
:104A20006BBD41FBABD9831F79217E1319CDE05BB0
:104A300030B58DB008F082FE014628B113480DB0A4
:104A4000BDE8304050F0B8B9114B5B7CDB0714D5A2
:104A5000104D02AC0FCD0FC42B6802A823600123B8
:104A60000D49009303220D4B08F036FE014610B1AC
:104A70000B4850F0A1F90DB030BD0A4D07AC0FCD79
:104A80000FC42B6807A82360E9E700BFD6340800ED
:104A9000550F0020B0030700480A0700400A07002E
:104AA000FB340800C403070010B50446044850F066
:104AB00083F92046BDE81040052153F049BE00BFF0
:104AC0002135080030B593B00FF0F6F944220021EB
:104AD000054601A840F086F90123124C237418F012
:104AE0008BFB637CA0B903F0FE0363742946442367
:104AF0000D4801AA55F0C2FE10B9019B052B0ADC36
:104B0000637C23F0020363748023E37413B030BD2D
:104B100043F00103E9E7637C43F0020363749DF80B
:104B20003C30F2E7550F00200600565110B5FFF754
:104B3000C9FF03210123094A094808F075FC014611
:104B400010B1084850F038F9BDE810404FF4203259
:104B50000023054905483EF0BBBB00BF400A0700E3
:104B6000480A07004935080098160020F81600206A
:104B700070B503788AB004460E4607AD032B20D8E3
:104B8000DFE803F002191B1D1149284641F00AF81D
:104B9000059563781E210493A37830460393E37848
:104BA0000C4A02932379019363790093A37950F01F
:104BB00010F90AB070BD0849E7E70849E5E7084978
:104BC000E3E70A212846074A50F003F9E0E700BF6F
:104BD00075350800973508007C35080083350800D6
:104BE0008D350800965A080030B5154689B00C4638
:104BF00053F033FE6946FFF7BBFF35B922466946DD
:104C0000054850F0D9F809B030BD2B462246694618
:104C1000024850F0D1F8F6E7BA350800DD35080053
:104C200010B50C4690B010466946FFF7A1FF20462C
:104C300008A9FFF79DFF6A46024808A950F0BCF892
:104C400010B010BD0636080010B50C4688B053F001
:104C500004FE6946FFF78CFF22466946024850F081
:104C6000ABF808B010BD00BF2636080000B589B00B
:104C700053F0F3FD6946FFF77BFF6946024850F0A9
:104C80009BF809B05DF804FB4C36080010B50C46E3
:104C900088B053F0E2FD6946FFF76AFF22460A4CEE
:104CA00069460A4850F088F84FF400420023204635
:104CB00007493EF00DFB00220023204605493EF047
:104CC00007FB08B010BD00BFF816002067360800CB
:104CD000C81600209816002000B589B029B10A48EE
:104CE00009B05DF804EB50F067B853F0B6FD6946C3
:104CF000FFF73EFF6946054850F05EF8044867F04C
:104D00002AFA09B05DF804FB8D360800B1360800B8
:104D10009816002070B590B00FF0CEF806460568E2
:104D200000214FF400403EF0F7FD3E4809F080FEC0
:104D30003D4809F097FE002007F0F2FD014618B14A
:104D40003A4850F039F831E0394850F035F818F069
:104D50006DFA044638BB374850F02EF8364A2D69B4
:104D60001046E9784FF090FF901C29794FF08CFFA6
:104D7000101D69794FF088FF52F8020CD2F802102A
:104D800003AB8DF8144003C303A807F0A9FD2B4B18
:104D90005B7CDB070DD42A4D0BAC0FCD0FC42B6809
:104DA0000BA823600CE0274850F006F8002010B054
:104DB00070BD254D06AC0FCD0FC42B6806A823602F
:104DC0000123032200932149214B08F085FC04466E
:104DD00010B101461F48B4E71F484FF0EDFFFFF741
:104DE00071FE1E4867F0A3F905234FF480521C4959
:104DF0001A4800943EF0C6F91A491B4867F09DF91D
:104E00001A491B4867F099F94FF4203200231849DA
:104E100012483EF02DFA234622463146154818F036
:104E200089FDC3E76008002050080020C236080052
:104E3000E3360800FB3608006B0F0020550F0020FA
:104E4000C40307002C370800B0030700480A070016
:104E5000400A07006837080091370800F81600205C
:104E600020670020314A0000C81600202D4B0000AA
:104E7000981600206F00565110B5094C0A44914213
:104E800000D110BD11F8013B58400309E35C00015B
:104E9000C0B243401809205C1B01DBB25840EEE76A
:104EA000B73708002DE9F04F91B0009302F00403EA
:104EB0000293C2F3C2030133840705460E46DDF8B0
:104EC00068900392059340F0BB81041D30B107291F
:104ED00009D86FF01B0011B0BDE8F08F01F0070694
:104EE000341DC6F10806009B4FF000084FF0040A7D
:104EF000591E4FF0FF3347460193C3465346CDF842
:104F000010800DB1009A22600598002800F3E88017
:104F10009848009A824203D397488242C0F0E080CA
:104F2000039AA4EB050E92074FEA9E0000F103815D
:104F30000F2F00F2B180002D00F0058107F1400233
:104F40000DEB020C019A0CF8200C0CF8102C0498B4
:104F500001300490E7E07A285DD84B280ED8472826
:104F600059D829282DD8252852D054D820287AD08D
:104F70002338D0F1000B4BEB000B74E04C382E289B
:104F800049D8DFE800F07048484848484848484851
:104F900048484B484848484848484859484B4B5966
:104FA0005959704B6D487048184B184848827F4BD0
:104FB00048484B487F0000204FF0000B4FF0040A98
:104FC00038E001222A38C0B202FA00F010EA0E0FCF
:104FD00049D110F0625C2FD110EA020B43D0604639
:104FE000013C5444B4FBFAF40AFB04F4002D61D0F4
:104FF000A3EB050CA4446645FFF46BAF002868D111
:10500000042B47D159F8043B2360042304342AE0DD
:10501000019A013A01924FF0000B24E011F8010CC3
:105020006C2834D1002011F8023C83466C2BC5D18A
:105030004FF0080A5346D3E709F1070929F0070999
:10504000073424F00704F9E802AB35B10698204490
:10505000B0423FF63EAFC4E900AB4FF0000B08345E
:105060004FF0080A534611F8010F002878D0BBF121
:10507000000F7FF470AF2528F5D14FF0010B019B95
:10508000013301934FF0040AECE7584694E70020FF
:105090008346A5E7082B02D06FF015001BE709F146
:1050A000070929F00709F9E80223C4E900230823C6
:1050B0000834D8E768B9042B02D109F10409A4E740
:1050C000082BE9D109F1070929F0070909F10809B5
:1050D000EDE7059A013A059259F8042B009210E782
:1050E000039A900720D54FF0010CA4EB050E4FEA70
:1050F0009E00BEF5007FCFD20F2FCDD8F5B107F1BE
:1051000040020DEB020E019AC0B20EF8200C0EF810
:10511000102CBCF1000F3FF41AAF60F07F000EF8C6
:10512000200C08F101080137C5F108024FF6DA7EBC
:105130000434069297E74FF0000CDAE7BCF1000F59
:1051400001D00136EFE7029802360028EBD1009833
:10515000CDE9063140F084FDDDE906310644E2E7A1
:10516000631BB3F5806F97D245B9A6F10804E01828
:10517000B1E600BF8CFC0600B40E0900029A9B0841
:1051800028602B709DF81030C2B1EB7085F802805A
:10519000B8F1000F05D0002208A8C5F1010C974214
:1051A0000ED14FF0000AC5F101030DF12009019362
:1051B0000DF1300B574512D1601B8CE66B70E5E7A3
:1051C00010F8013B190608D504EB0C0E764503F0E8
:1051D0007F03FFF47EAE04F8013B0132DFE7B8F154
:1051E000000F03D099F90020002A17DB029BD3B1EE
:1051F0001AF80B2004F8012B0022019B9818204478
:105200008642FFF466AE99F80000009904F8010B9D
:1052100020460392FBF7EEFC039A14440AF1010ABC
:1052200009F10109C6E799F8002055F822300093EA
:10523000029B009845F8223040F012FD421CDCE74A
:105240006FF00D0047E600BF2DE9F04F95B000AFBD
:10525000BB61BB6F0446C3F3C0038A4690F802B03B
:105260007A623B6141B9457800780BEB80002044BD
:10527000554517D8A0EB040AE3787B61BBF1000F1A
:1052800002D0BB6FD80716D47B6953BB7B6A1BB1B6
:1052900051462046BA699847554628465437BD4678
:1052A000BDE8F08F461C304640F0DAFC0130304457
:1052B0000AF1010ADCE7237862683B629B00FB602D
:1052C0003B6AFA6104EB83097B6A002B40F0FF80A4
:1052D000C8460026554609EB0B0AD04551D1D944A2
:1052E00013E0BB6F9907D1D5237899463B629B00A9
:1052F000FB60636804EB8909FB617B6A002B7AD150
:105300005546BBF1000F4FD15E46BB6F13F0050F42
:105310000CBF4FF0020B4FF0010B7B6909EB430A06
:10532000BB6F03F002037B62D145B6D019F8021BB4
:1053300019F8013C54F82380AB4B984502D3AB4B92
:10534000984538D33B69002B42D0F8694FF0DBFC1D
:1053500000283DD0E8468AB06A46A54B5361FB69F8
:10536000C2E906314FF400731384A24B42F8103F98
:1053700000234FF41251A04802F004FA023DC54642
:10538000D2E718F8013B54F8230040F069FCFB6FAA
:1053900001303BB1D7F880309E423EBFFB6F23F80F
:1053A00016000136054498E7BB6F13F004061CBFD6
:1053B0007E6AD944A9E73B6923B1F8694FF0A3FCA1
:1053C0000028C7D1BB6FDA0705D4A5EB0B05ABE707
:1053D0007B6A002BA8D0404640F042FCFB6F43B1F3
:1053E000D7F880309E423FBFFA6F431C22F8163038
:1053F0000136054498E7BBF1000F6ED0BB6F13F088
:1054000004066DD0D846002607F140005A464946AA
:10541000FBF7F0FB7B69D9445B007B607B6909EBA0
:105420004303BB60BB6F03F002033B60BB684B45AB
:1054300058D1B96F6378B86F890748BF002106EB70
:10544000030258BF4FEA5801C507D2B200F19A8053
:1054500010F0040F14BF40460020FB616270A07082
:10546000E1702046BA69F9687B6A9847051EFFF625
:1054700014AF3B6A41462370FB69BA6963707B696C
:1054800084F802B0E37007F140007B6A9847B0F1FE
:105490000008C0F2A480FB68AAEB0B01C91A7B6864
:1054A0004846C91ABA697B6A98470028C0F29980B1
:1054B0004FF0000BA84408EB000507F1300AB34594
:1054C00062D30021BA6908467B6A9847E5E65E46E2
:1054D0004FF0000807F1300098E75E46D84699E79C
:1054E000B04697E719F8021B3F4B19F8015C54F8D6
:1054F0002500984202D33D4B98421DD33B6923B10E
:10550000F8694FF000FC002890D13B68FBB908F126
:10551000280307F1280208F1010003EB020C07F150
:10552000500308F1020853FA80F00CF8101C5FFADF
:1055300088F800F8105C79E73B692BB1F8694FF007
:10554000E2FB00287FF472AFBB6FDB0709D506F1E1
:10555000280307F12802711C9E1806F8205CCEB2C1
:1055600064E7BB6F58077FF561AF08F1280307F1C7
:10557000280208F1010103EB020808F8105C5FFA49
:1055800081F853E7002068E71BF80A3054F82390AD
:1055900087F82F30FB6FFBB133F81B800121BA690C
:1055A0007B6A07F12F00984700281ADB0544B8F101
:1055B000000F06D1484640F053FB00F101081FFAE6
:1055C00088F841464846BA697B6A9847002808DB54
:1055D00005440BF1010B72E7D7F87C80DEE7454606
:1055E0005BE6054659E600BF8CFC0600B40E0900D8
:1055F000C737080004000001C40107000F2808B5E0
:1056000006D952F026FC092303604FF0FF3008BD95
:105610002822044B02FB0033D3E8AF3F002BF0D02D
:105620000020F4E76036002070B504460D461646AB
:10563000FFF7E4FF00280ADB084A55B1282303FBE3
:1056400004235B68AB4204D052F003FC06600020E8
:1056500070BD28235C431059FAE700BF583600207C
:1056600070B504460E461546FFF7C8FF00280DDB4F
:1056700028236343064AD1184968316015B10C33B9
:1056800013442B6028235C43105970BD0020FCE7B5
:105690005836002070B500254FF0FF334FF0FF3231
:1056A00017483DF09BFA174BD3E8AF2F7AB101357D
:1056B000102D03F12803F7D152F0CBFB17234FF045
:1056C000FF3503600E483DF003FB284670BD2824DB
:1056D0006C43D3E8EF0F0130C3E8E10F0029F8D1A4
:1056E000094E331932515A6004F10C00304466F00F
:1056F00077FB04F12000304466F0F1FEE2E700BFE2
:1057000054110020603600205836002010B40446A2
:10571000104628225443084B1A191951506040B1C1
:10572000C26832B10C34234440F2051210BC4FF071
:105730000FBB10BC704700BF5836002028234343DE
:1057400030B50D4908330B44D3E8AF2F92B1541E46
:10575000D3E8EF5F954204D1C3E8EC4FBCF1000FF2
:10576000F6D1F1D1012A05D12823584300230A1884
:105770000B50536030BD00BF58360020014B1860FD
:10578000704700BF7808002030B5002587B0CDE90C
:1057900003010446009503A90548059500F07AF930
:1057A000DDE904309842B8BF255407B030BD00BFD2
:1057B0008F4D05002DE9F047058B044628079046DC
:1057C00011D4022905F0070540F0CD8020464FF0A6
:1057D000C4FD78B10138218B042811D8DFE800F02E
:1057E000C3106D85950001290CBF45F0100545F0EB
:1057F0002005258388F31188BFF36F8FBDE8F087FC
:1058000001F0070AAA4500F0A6800027B9463E46E7
:10581000A368002B00F0BD8041F00801218388F3CC
:105820001188BFF36F8FA168002900F0BB800D685D
:10583000002900F0B780334652462046D1F8048054
:10584000C047002D76D02B6829461D46F0E701F0B1
:1058500007035A1F012A1BD8002221F00701062B3B
:10586000276889B2C4E9002209D13B4603E0628B74
:10587000013262831B68002BF9D141F002012046FE
:1058800021834FF06AFD00287BD041F0200177E0B2
:10589000042B0AD121F0070189B2204621834FF061
:1058A0005CFD10B141F020012183218B01F0070A3A
:1058B000AA4550D00027B946AAE7236921F007017D
:1058C00041F00601062DD3F8009021832DD1B9F1C6
:1058D000000F40D041F00801218388F31188BFF305
:1058E0006F8F20463949C84729E021F00701236915
:1058F00041F0040189B2042DD3F804902183E6D04D
:1059000000274FF0040A3E4682E721F00701236991
:1059100041F0050189B2052DD3F808902183D6D036
:1059200000274FF0050A3E4672E700274FF0060AAF
:105930003E466DE72B4687E7B9F1000FD1D14FF016
:105940002003EFF3118883F31288BFF36F8F238B4B
:1059500023F008032383258BEA062ED525F01003B8
:10596000238305F007056669218B002EBFF66FAF14
:1059700000232768C4E9003321F0070141F0010149
:105980002183218B4FF0000901F0070AAA457FF41B
:105990003FAF002F9BD041F00801218388F311888D
:1059A000BFF36F8F002FC7D03D683946334652464C
:1059B00020464FF0FEFC2F46F4E7AB067FF51AAF0A
:1059C00025F02003238305F00705FFE6DF530500DC
:1059D000F0B5024601680A270020074E0B461C78E6
:1059E0000131355D6D0701D41360F0BD07FB004345
:1059F000A3F13000F2E700BFB12208002DE9F84F13
:105A000015469A46D378224A6F2B12F803B0804687
:105A10000F460BF0030B29D024D8582B0CBF1026AF
:105A20000A26DDF828903246002340463946FBF727
:105A3000A9F8092AD4B21ED83034B045E4B277F1BF
:105A4000000709F8014D01D3D14511D82B789B06E9
:105A500005D5082E15D1AB7843F00803AB70484646
:105A6000BDE8F88F03F0F703702BD7E70826D8E7D7
:105A700080460F46D7E7BBF1010F0CBF37345734D0
:105A8000DBE7102EEBD1AB7843F01003E6E700BF65
:105A9000B12208002DE9F04F8A4616461C46002523
:105AA00097B00390307808B928464AE3731C25283C
:105AB000049307D05146039B98470028C0F24183C6
:105AC0000135F0E11822002110A83FF08BF973781E
:105AD000252B00F0A380002398469E469C4618463E
